:030000000206A451
:0C06A400787FE4F6D8FD7581490206EB72
:10089900EF1FAC0670011E4C601A0000000000003A
:1008A900000000000000000000000000000000003F
:0508B900000080DC22BC
:10090000AB07AA06EB1BAE0270011A4E60097FE628
:080910007E0312089980ED221C
:1008E2001509190000001900000019190019191939
:0A08F2000000191919191901080076
:0207A2008F3F87
:1007A4000508D3E5089407748094804003E4F508B1
:1007B400E4F540C3E540943274809480502BE508FE
:1007C40075F003A42409F8E6FDE50875F003A424F4
:1007D4000AF8E6FBE50875F003A4240BF8E6F544F3
:0C07E400AF40120867054080CA020730D1
:100834001209181208BEE4F53DC3E53D94327480F4
:1008440094805010850B44AB0AAD09AF3D12086784
:10085400053D80E512073012060B7F057E00120964
:030864000080F41D
:0603D5008B218A2289231E
:1003DB00AC2DE41202AB7B337A33792378401200D5
:1003EB00FB8F388E378D368C35C37464952CFDE4BA
:1003FB009400FC1202A6AB38AA37A936A835120016
:10040B00FBE4FBFA79C878421202048F348E338DE9
:10041B00328C31AE2AAF2B7C007D3C1203728F2EB7
:10042B00AE2AAF2B7C007D3C1203728C2F8D30AB30
:10043B0034AA33A932A831AF38AE37AD36AC35124A
:10044B000006C004C005C006C007AC2FAD30E412D7
:10045B0002A6D003D002D001D0001200FBE4FBFABD
:10046B00797078421202048F3C8E3B8D3A8C39E5C1
:10047B002E1460431470030205021470030205422C
:10048B00147003020581240460030205C0AF38AE6B
:10049B0037AD36AC351202DFAB21AA22A923EF12FE
:1004AB000360AF3CAE3BAD3AAC39AB34AA33A932A7
:1004BB00A83112000A8028AB3CAA3BA93AA839AF55
:1004CB0038AE37AD36AC351200061202DFAB21AABF
:1004DB0022A923EF120360AF38AE37AD36AC35121D
:1004EB0002DFAB24AA25A926EF120360AF34AE338B
:1004FB00AD32AC310205FDAF34AE33AD32AC31129F
:10050B0002DFAB21AA22A923EF120360AF38AE376B
:10051B00AD36AC351202DFAB24AA25A926EF1203A8
:10052B0060AF3CAE3BAD3AAC39AB34AA33A932A881
:10053B003112000A0205FDAF34AE33AD32AC3112CD
:10054B0002DFAB21AA22A923EF120360AB3CAA3B2B
:10055B00A93AA839AF38AE37AD36AC351200061212
:10056B0002DFAB24AA25A926EF120360AF38AE3702
:10057B00AD36AC35807CAF3CAE3BAD3AAC39AB3431
:10058B00AA33A932A83112000A1202DFAB21AA2228
:10059B00A923EF120360AF34AE33AD32AC3112028C
:1005AB00DFAB24AA25A926EF120360AF38AE37AD17
:1005BB0036AC35803DAF38AE37AD36AC351202DFD9
:1005CB00AB21AA22A923EF120360AF34AE33AD32B5
:1005DB00AC311202DFAB24AA25A926EF120360ABC4
:1005EB003CAA3BA93AA839AF38AE37AD36AC351279
:0F05FB0000061202DFAB27AA28A929EF1203601E
:01060A0022CD
:10086700EF75F003A42400F582E43400F583EBF080
:10087700EF75F003A42401F582E43400F583EDF06D
:10088700EF75F003A42402F582E43400F583E54410
:02089700F0224D
:1007F0008F458B48EF75F003A4FFAEF02401F97428
:10080000003EFA7B01C003C00174002FF974003E62
:100810008B24F525892674022FF974003E8B27F569
:100820002889298C2A8D2B85482C85492DD001D0EB
:04083000030203D5E7
:10073000C2AFE4FFEFC39432748094805061E4FE52
:10074000EEC39403748094805052EF75F003A42498
:1007500000F582E43400F583E5822EF582E43583EA
:10076000F583E0F9E4FDEDC394087480948050298A
:10077000D2B3000000000000000000E93392B30093
:100780000000000000000000000000E925E0F9C2C0
:10079000B300000000000D80CD0E80A40F8095D224
:0107A000AFA9
:0107A1002235
:1008BE00C2B353B2F753B1F7E4FEEEC39432748071
:1008CE009480500DAF06E4F544FBFD1208670E80D0
:0408DE00E9020730F4
:0308FC00011E00DA
:10060B00E4F53EC3E53E94017480948040030206FA
:10061B00A3E53E7004A2B29200741E253EF8E6FFDD
:10062B005401FEA200E433FD6E6010EF5403FFF69D
:10063B00ED5401FEEF54FE4EF68058E6FF131354B3
:10064B003FFE543FC39414748094805015741E2540
:10065B003EF8EF5403FFEE04543F25E025E04FF640
:10066B008031741E253EF8E6FFC3135401FEEF5490
:10067B0001FF6E601E741E253EF8E6FEEF25E0FFBF
:10068B00741E253EF8EE54FD4FF654017005AF3E37
:08069B001207A2053E02060E43
:0106A3002234
:0709180053B2FB53B1FB22B7
:1000030002034BE86480F8E933E83360110460F0DD
:10001300ED33EC337009E8FCE9FDEAFEEBFF220463
:1000230060DED3EB9FEA9EE99DE8C2E78CF0C2F75E
:1000330095F0400CE8CCF8E9CDF9EACEFAEBCFFB2A
:1000430012031685D0F05804700320D5B3E804706A
:10005300075002B2D502035592D5EC0460F7E4CC05
:10006300C0E0C398F8603B94186008400DD0E0FBF3
:1000730002032DE4FBFAC9FC8028E830E406E4C956
:10008300FBE4CAFCE830E305E4C9CACBFCE8540747
:100093006010F8C3E913F9EA13FAEB13FBEC13FC52
:1000A300D8F130F52FC3E49CFCEF9BFFEE9AFEEDF5
:1000B30099FDD0E0FBEF4E4D4C701222DB0302039F
:1000C30052EC2CFCEF33FFEE33FEED33FDED30E766
:1000D300EB02032DEF2BFFEE3AFEED39FDD0E0FBF3
:1000E30050130BBB0003020355ED13FDEE13FEEF9C
:0800F30013FFEC13FC02032DC6
:1000FB00EC4D6011E8497017ED33EC3304600DE4FF
:10010B00FCFFFEFD22E933E8330470F802034B12C7
:10011B00031658046009E4CC2481500628500902C8
:10012B000355284003020352C0E0EB4A7044B980E8
:10013B0006D0E0FB020341EF4E701CBD8008EBFFC5
:10014B00EAFEE9FD80EBE98DF0A4FEE5F00201E4A7
:10015B00E9CDF9EAFEEBFFEF89F0A4FCE5F0CE89DF
:10016B00F0A42EFFE435F0CD89F0A42DFEE435F09C
:10017B008067EF4E7005BD80D780C3EF8BF0A4ACCA
:10018B00F0EE8BF0A42CFCE435F0F8EF8AF0A42C05
:10019B00E5F038FCE433CB8DF0A42CFCE5F03BF818
:1001AB00EE8AF0A42CFCE5F038F8E433CF89F0A408
:1001BB002CFCE5F038CF3400CE89F0A42FFFE5F00E
:1001CB003EFEE433C98DF0A42EFEE5F039CD8AF066
:1001DB00A42FFFE5F03EFEE43DFD33D0E0FB5007DE
:1001EB000BBB000F020355EC2CFCEF33FFEE33FE81
:0601FB00ED33FD02032DAF
:10020100020355EC5D046005E85904700302034BD9
:10021100120316580460F6EC4860F2EC7004FDFE1F
:10022100FF22C860DB2481C85009C39860025006D0
:100231000203529850CAF582E9294B4A7005AB82F4
:1002410002034175F0007C1A7880C3EF9BEE9AEDB2
:1002510099400DC3EF9BFFEE9AFEED99FDE842F048
:10026100DC23ACF0D0E0FFD0E0FED0E0FDAB82209B
:10027100E7101BEB60BAEC2CFCEF33FFEE33FEED25
:1002810033FD02032DE803F830E705C0F075F000F7
:10029100EF2FFFEE33FEED33FD40B830E7C280AA09
:1002A10075F020800E75F010800575F0087D007ED8
:1002B100007F003392D530D5031203C7EC334010D1
:1002C100EF33FFEE33FEED33FDEC33FCD5F0ED22E1
:0E02D100E5F0247EA2D513CC92E7CDCEFF221D
:1002DF00EDD2E7CD33EC3392D524814006E4FFFE17
:1002EF00FDFC22FCE4CFCECDCC24E0501174FF8076
:1002FF00EDC3CC13CCCD13CDCE13CECF13CF047013
:07030F00F030D5DE0203C748
:10031600E9D2E7C933E833F892D5EDD2E7CD33EC2D
:0703260033FC5002B2D522A6
:10032D00EC30E7100FBF000C0EBE00080DBD000431
:10033D000BEB6014A2D5EB13FCED92E7FD2274FFDD
:10034D00FCFDFEFF22E480F8A2D574FF13FC7D8036
:03035D00E480EF4A
:1006B000020834E493A3F8E493A34003F68001F224
:1006C00008DFF48029E493A3F85407240CC8C3334B
:1006D000C4540F4420C8834004F456800146F6DF1A
:1006E000E4800B01020408102040809008E2E47EC0
:1006F000019360BCA3FF543F30E509541FFEE4930F
:10070000A360010ECF54C025E060A840B8E493A3D5
:10071000FAE493A3F8E493A3C8C582C8CAC583CA00
:10072000F0A3C8C582C8CAC583CADFE9DEE780BEB8
:0108FF0000F8
:10036000BB010689828A83F0225002F722BBFE017C
:02037000F32276
:10037200BC000BBE0029EF8DF084FFADF022E4CC6F
:10038200F875F008EF2FFFEE33FEEC33FCEE9DEC38
:10039200984005FCEE9DFE0FD5F0E9E4CEFD22ED7E
:1003A200F8F5F0EE8420D21CFEADF075F008EF2FC8
:1003B200FFED33FD4007985006D5F0F222C398FDB9
:0503C2000FD5F0EA2256
:0E03C700C3E49FFFE49EFEE49DFDE49CFC2247
:00000001FF
