:0300000002004EAD
:100008000000E2FBEAF2802C0000E0FBEAF080242A
:10001800E6B50202EBF62200E2B50202EBF222009C
:10002800E0B50202EBF02230F6E0A88220F5D3EA30
:10003800C6F582228B822230F6E6A88220F5D98086
:01004800CFE8
:0300AD0002004905
:050049001200B080FE72
:1000B0001201E612012512030912014A1201FC90F5
:0700C000000512038D80F51D
:0600A70075081A7509003E
:1000C700E58275F003A42401FE740035F0FF8E82EB
:1000D7008F83E510F08E828F83A3E50FF08E828FDA
:1000E70083A3A3E511F022C2AF9000017F96E0A39E
:1000F7007E0833D2B3000000000000000000009229
:10010700B300000000000000000000C2B3000000C0
:1001170000000000000000DED9DFD3D2AF22C2B357
:1001270043B20853B1F77F00750F007510007511C2
:10013700008F82C0071200C7D0070FBF320040E808
:100147000200EEE50975F003A424B3FE740335F04D
:10015700FF8E048F058C828D83E4936002E508FD92
:1001670074012EFBE43FFC8B828C83E4936002E5F1
:1001770008FC74022EFEE43FFF8E828F83E49360B7
:1001870002E508FF7E008D0F8C108F118E82C0074D
:10019700C006C005C0041200C7D004D005D006D0E1
:1001A700070EBE320040DF0200EE050974F925098B
:1001B700500375090002014AAE087F0074022EFE43
:1001C700E43FFFC374FF9EE49F50047E087F00C393
:0F01D700EE9408EF940050027E088E0802014A51
:1003B3000100000001000000010100010101000033
:0503C300010101010130
:1001E60053B2FB53B1FB750A00D200E4F50BF50CD4
:1001F600C201750D0022E5B0540424FFE433FF8FDD
:10020600F0A200E433B5F0028030050A74FD250A39
:10021600502B750A00EF24FF9200400CE4F50BF515
:100226000CC201750D0080153001051203408006D1
:100236001201B1120340C2018003750A0020003585
:10024600C3E50B94FFE50C94FF5008050BE4B50BD2
:1002560002050C200111C3E50B9464E50C940040E3
:1002660014D201750D0022050D74FD250D5006757D
:100276000D000201BF2275C70075C50075C6007561
:10028600C3FF75C4FF22AE82AF83A2AF9202C2AF94
:1002960075C78075F52375C5018FC38EC475C65A9B
:1002A60075C6A500AFC2C00712027CD007A2029293
:1002B600AF8F8222AE82AF83A2AF9203C2AF75C761
:1002C6008075F52375C5028FC38EC4850EC275C6AB
:1002D6005A75C6A50012027CA20392AF22AE82AF67
:1002E60083A2AF9204C2AF75C78075F52375C503A7
:1002F6008FC38EC475C65A75C6A50012027CA204A9
:1003060092AF2290000012028CAF82BFA52590000A
:100316000112028C85820990000212028C858208E5
:1003260074F92509500375090074F82508400A7503
:1003360008082275090075081A229000001202E3C7
:10034600750EA59000001202BA85090E90000112E2
:1003560002BA85080E9000020202BAAE82AF838E00
:10036600048F051EBEFF011FEC4D601A0000000041
:100376000000000000000000000000000000000077
:100386000000000080D922AE82AF838E048F051E46
:10039600BEFF011FEC4D60109003E6C007C00612B9
:0903A6000361D006D00780E322B8
:06007D00E478FFF6D8FD57
:10005B007900E94400601B7A009003C8789775A07B
:10006B0000E493F2A308B8000205A0D9F4DAF27504
:02007B00A0FFE4
:100083007800E84400600A790175A000E4F309D818
:10009300FC7896E84400600C7901900001E4F0A339
:0400A300D8FCD9FAB2
:0D004E007581201203AFE5826003020049B6
:0403AF007582002231
:00000001FF
