:03000000020006F5
:0300650002000393
:0300030002006890
:100068001203621200E512057F12010E120392902C
:07007800000512060380F5EC
:06005F0075081A75090086
:10007F00E58275F003A4FFAEF02401F582EE3400A3
:10008F00F583E522F0EF2401FFEE3400FE8F828E20
:10009F0083A3E521F08F828E83A3A3E523F022C2F1
:1000AF00AF9000017F96E0A37E0833D2B30000002B
:1000BF000000000000000092B300000000000000EC
:1000CF00000000C2B300000000000000000000DECE
:1000DF00D9DFD3D2AF22C2B3AEB24306088EB2532A
:1000EF00B1F77F007521007522007523008F82C044
:1000FF000712007FD0070FBF320040E80200AEE5C5
:10010F000975F003A4FEAFF0246DFCEF3406FD8CEF
:10011F00828D83E4936006AC087D0080047C007DB3
:10012F0000EE246DFBEF3406FD0BBB00010D8B823F
:10013F008D83E4936006AB087D0080047B007D0017
:10014F00EE246DFEEF3406FF74022EFEE43FFF8EA9
:10015F00828F83E4936006AE087F0080047E007F69
:10016F00007F008C218B228E238F82C007C006C098
:10017F0004C00312007FD003D004D006D0070FBFF6
:10018F00320040DF0200AE050974F92509500375EE
:10019F00090002010E7F00BF6400500EEF9006822F
:1001AF0093FEC3950850030F80ED8F0A22E582FF5F
:1001BF006008749C250A4002050AEF7006E50A6084
:1001CF0002150AE50A90068293F508C00712010E80
:1001DF00D007EF6006749C250A400BEF7004E50A08
:1001EF0060047F0080027F018F82227F007E007576
:1001FF0021007522007523008E82C007C0061200F1
:10020F007FD006D0070EBE04005005BE320040DF7F
:10021F00C0071200AE90006412060312010E900088
:10022F0064120603D0070FBF020040C122AF82BF86
:10023F005500503EAC21AD22AE238F03EB75F0037A
:10024F00A4D394FFF48C828D838EF012064EAC24CF
:10025F00AD25AE26EF75F003A48C828D838EF01240
:10026F00064EAC27AD28AE298C828D838EF0E4022A
:10027F00064EBFAA0050448F06EE24ABFEAB21AC56
:10028F0022AD238B828C838DF0E412064EAB24AC0F
:10029F0025AD268E02EA75F003A4D394FFF48B826A
:1002AF008C838DF012064EAB27AC28AD29EE75F07E
:1002BF0003A48B828C838DF002064EEF2456FFAC85
:1002CF0021AD22AE23EF75F003A48C828D838EF0C7
:1002DF0012064EAC24AD25AE268C828D838EF0E4B3
:1002EF0012064EAC27AD28AE29EF75F003A4D394B8
:1002FF00FFF48C828D838EF002064E7F008F057E79
:10030F00008D837582007521328E22C0071206255B
:10031F00E582250BF58275210C752200752340753A
:10032F00240D75250075264075270E752800752933
:10033F004012023CD007850C21850D22850E238F9C
:10034F0082C00712007FD0070FBF320040AF050BEE
:03035F000200AEEB
:10066D000100000001000000010100010101000076
:10067D000101010101080808080808090909090A0A
:10068D000A0A0B0B0C0C0D0E0E0F10111213141574
:10069D00161718191B1C1E1F2122242527292B2D47
:1006AD002F31333537393B3E404345484A4D505342
:1006BD0055585B5E6165686B6E7275797C80848759
:1006CD008B8F93979B9FA3A8ACB0B5B9BEC2C7CC77
:0A06DD00D1D6DBE0E5EAEFF4FAFF06
:1003620053B2FB53B1FBE4F510F511F512F50FD2C0
:1003720000C203C201C3E50894FF9202751400751E
:100382001300C204D20575150A75170075160022EE
:10039200E5B003035401FF8FF0A200E433B5F0028D
:1003A2008062050F74FD250F505D750F00EF24FF6D
:1003B20092004011E4F511F512C203C20175170053
:1003C200751000804230010C300404B205803112F5
:1003D20005B6802C051375140020041374FB251335
:1003E200500DD20475130075160012030A801130E5
:1003F200040E74FC25135008C20475130012010E7A
:10040200C2018003750F003000030204A3C3E5118B
:1004120094FFE51294FF50080511E4B5110205128C
:1004220020012EC3E5119464E51294004023751354
:1004320000D2013004030204CD740125085004C225
:10044200028008E50824F74002D2021201A4020445
:10045200CD300126300423051774F62517506C752C
:100462001700300508E51524FE5002151520055B1E
:1004720074EC251540550515805130014E20034B73
:10048200051074FC25105043751000A202E433F5E8
:10049200821201BCE58260331201FAB202D20380F9
:1004A2002AE5136026051474C42514501E20041571
:1004B2007F00C3EF9513500AC007120196D0070FB1
:1004C20080F01205B675140075130030040F05167E
:1004D200C3E5169515400675160002030A2275C774
:1004E2000075C50075C60075C3FF75C4FF22AE82D4
:1004F200AF83A2AFE433FDC2AF75C78075F5237534
:10050200C5018FC38EC475C65A75C6A500AFC2C0D9
:1005120007C0051204E0D005D007ED24FF92AF8F8B
:100522008222AE82AF83A2AFE433FDC2AF75C78031
:1005320075F52375C5028FC38EC48518C275C65A58
:1005420075C6A500C0051204E0D005ED24FF92AFE8
:1005520022AE82AF83A2AFE433FDC2AF75C780750E
:10056200F52375C5038FC38EC475C65A75C6A5001B
:10057200C0051204E0D005ED24FF92AF22900000E6
:100582001204F0AF82BFA5259000011204F085820B
:10059200099000021204F085820874F925095003BB
:1005A20075090074F82508400A75080822750900C3
:1005B20075081A229000001205537518A5900000C4
:1005C2001205248509189000011205248508189047
:1005D2000002020524AE82AF838E048F051EBEFF89
:1005E200011FEC4D601A0000000000000000000036
:1005F200000000000000000000000000000080D9A0
:1006020022AE82AF838E048F051EBEFF011FEC4D0A
:1006120060109003E6C007C0061205D7D006D007C7
:1006220080E3227A10E4FBFCE58225E0F582E58393
:1006320033F583EB33FBEC33FCEB9521F5F0EC95D2
:0C064200224006FCABF0438201DADD220E
:06003500E478FFF6D8FD9F
:100013007900E94400601B7A009006E7789775A0A1
:1000230000E493F2A308B8000205A0D9F4DAF2754C
:02003300A0FF2C
:10064E0020F71130F6138883A88220F509F6A883C7
:0B065E007583002280FEF280F5F02280
:10003B007800E84400600A790175A000E4F309D860
:10004B00FC7896E84400600C7901900001E4F0A381
:04005B00D8FCD9FAFA
:0D000600758129120669E58260030200037E
:040669007582002274
:00000001FF
